:100000000C94FE000C941F010C941F010C941F0112
:100010000C941F010C941F010C941F010C941F01E0
:100020000C941F010C941F010C941F010C941F01D0
:100030000C941F010C941F010C9481030C941F015C
:100040000C941F010C941F010C941F010C941F01B0
:100050000C941F010C941F010C941F010C941F01A0
:100060000C941F010C941F010C941F010C941F0190
:100070000C941F010C941F010C941F010C941F0180
:100080000C941F010C941F010C941F010C941F0170
:100090000C941F010C941F010C941F010C94E2049A
:1000A0000C941F010C941F010C941F010C941F0150
:1000B0000C941F010C941F010C941F010C941F0140
:1000C0000C941F010C941F010C941F010C941F0130
:1000D0000C941F010C941F010C941F010C941F0120
:1000E0000C941F010C941F010C941F010C941F0110
:1000F0000C941F010C941F010C941F010C941F0100
:100100000C941F010C941F010C941F010C941F01EF
:100110000C941F010C941F010C941F010C948E046D
:100120000C94B8040C941F010C941F010C941F0133
:100130000C941F010C941F010C941F010C941F01BF
:100140000C941F010C941F010C941F010C941F01AF
:100150000C941F010C941F010C941F010C941F019F
:100160000C941F010C941F010C941F010C941F018F
:100170000C941F010C941F010C941F010C941F017F
:100180000C941F010C941F010C941F010C941F016F
:100190000C941F010C941F010C941F010C941F015F
:1001A0000C941F010C941F010C941F010C941F014F
:1001B0000C9450080C941F010C941F010C941F0107
:1001C0000C941F010C941F010C941F010C941F012F
:1001D0000C941F010C941F010C941F010C941F011F
:1001E0000C941F010C941F010C941F010C941F010F
:1001F0000C941F010C941F010C941F0111241FBEAD
:10020000CFEFCDBFDFE3DEBF00E00CBF10E2A0E028
:10021000B0E2EAE1FAE100E00BBF02C007900D9204
:10022000A432B107D9F720E2A4E2B0E201C01D92E6
:10023000AB38B207E1F70E946E030C940B0D0C94DF
:100240000000CF93DF93CDB7DEB780EA96E020E1E0
:10025000FC01228380EA96E020E2FC01228380EA0E
:1002600096E020E4FC01228380EA96E020E8FC018D
:1002700022830000DF91CF910895CF93DF93CDB714
:10028000DEB780EA96E0FC018085882F90E08071DF
:1002900099279595879595958795959587959595A2
:1002A0008795892B89F48091242090912520803690
:1002B0009A4E20F5809124209091252001968093DC
:1002C0002420909325201AC08091242090912520ED
:1002D0000B9768F08091242090912520C39718F007
:1002E00010922F2007C081E080932F2003C082E06E
:1002F00080932F20109224201092252080EA96E0EF
:10030000FC018085882F90E08072992795958795CC
:1003100095958795959587959595879595958795C5
:10032000892B89F4809126209091272080369A4E3F
:1003300020F58091262090912720019680932620F9
:10034000909327201AC080912620909127200B9708
:1003500068F08091262090912720C39718F0109282
:10036000302007C081E08093302003C082E080937A
:100370003020109226201092272080EA96E0FC017F
:100380008085882F90E080749927082E892F000C93
:10039000881F990B000C881F991F892B89F4809165
:1003A00028209091292080369A4E20F5809128208F
:1003B00090912920019680932820909329201AC09B
:1003C00080912820909129200B9768F08091282017
:1003D00090912920C39718F01092312007C081E036
:1003E0008093312003C082E0809331201092282036
:1003F0001092292080EA96E0FC01808588238CF009
:1004000080912A2090912B2080369A4E20F5809161
:100410002A2090912B20019680932A2090932B20C4
:100420001AC080912A2090912B200B9768F0809120
:100430002A2090912B20C39718F01092322007C0E9
:1004400081E08093322003C082E0809332201092BA
:100450002A2010922B200000DF91CF9108950F9356
:10046000CF93DF93CDB7DEB72597CDBFDEBF8B83AC
:100470009C836D838B819C8189839A8389819A81F6
:100480002D81FC0108ED04BF208300002596CDBF1F
:10049000DEBFDF91CF910F910895CF93DF93CDB75A
:1004A000DEB780E590E023E5FC01228380E590E063
:1004B00020E530E0F90120812860FC012083000064
:1004C00080E590E0FC018181882F90E08870992779
:1004D000892BB1F380E590E024ECFC01258380E5D5
:1004E00090E020E530E0F90120812061FC012083CB
:1004F000000080E590E0FC018181882F90E0807110
:100500009927892BB1F364E080E490E00E942F02E8
:100510000000DF91CF910895CF93DF93CDB7DEB781
:100520002597CDBFDEBF8D838AEC91E022E0FC01F0
:1005300020838D81882F90E089839A8389819A8195
:10054000FC0184918B838B818C838AEC91E0FC018C
:1005500010828C812596CDBFDEBFDF91CF910895AB
:10056000CF93DF93CDB7DEB780E098E025E0FC01C4
:10057000208380E098E0FC01118280E098E022E096
:10058000FC01268380E098E024EF31E0FC0126A303
:1005900037A30000DF91CF910895CF93DF93CDB7BC
:1005A000DEB70000DF91CF910895CF93DF93CDB7F1
:1005B000DEB780EA90E020EA30E0F901228127608E
:1005C000FC01228378940000DF91CF9108950F936E
:1005D0001F93CF93DF93CDB7DEB780E092E021E0A9
:1005E000FC01208380E092E0FC01118280E092E037
:1005F00022E1FC01228380E092E023E0FC012483DD
:1006000080E092E021E0FC0120A380E092E027E47A
:10061000FC0121A380E092E021E0FC0122A380E024
:1006200092E021E0FC0120A780E092E02DE4FC01B3
:1006300021A780E092E021E0FC0122A700E412E083
:1006400084E20E948C02F801848700E412E085E2D3
:100650000E948C02F80185878EE20E948C02882F0E
:1006600090E080933520909336208FE20E948C0298
:10067000882F90E0982F88279C01809135209091B9
:100680003620820F931F809335209093362080E48C
:1006900092E021E0FC01208380E492E0FC011182E1
:1006A00080E492E023E0FC01228380E492E023E0F6
:1006B000FC01248380E492E0FC0110A280E492E03B
:1006C00025E0FC0121A380E492E021E0FC0122A3CB
:1006D0000000DF91CF911F910F910895CF93DF9389
:1006E000CDB7DEB70E944D020E9421010E944D0647
:1006F0000E94B0020E94CD020E94E7020E94D50231
:10070000FFCF1F920F9200903F000F921124009094
:100710003B000F92CF92DF92EF92FF922F933F9385
:100720004F935F936F937F938F939F93AF93BF93F9
:10073000EF93FF93CF93DF93CDB7DEB72C97CDBF69
:10074000DEBF0E943D010E94660740E050E260E08B
:1007500070E080E090E00E94030880913320909147
:1007600034209E012B5F3F4FB9010E94B008CE019B
:100770000596AC0166E070E080E090E00E9403081E
:1007800047E050E260E070E081E090E00E94030802
:1007900080913720909138209E012B5F3F4FB90107
:1007A0000E94B008CE010596AC0166E070E081E0E1
:1007B00090E00E9403084EE050E260E070E082E0CA
:1007C00090E00E9403088091392090913A209E0188
:1007D0002B5F3F4FB9010E94B008CE010596AC01D6
:1007E00068E070E082E090E00E940308809135208C
:1007F00090913620CC01A0E0B0E0BC01CD010E9478
:10080000A50BDC01CB019C01AD0163E373E183EB3C
:1008100093E40E94FD0ADC01CB016C017D01809113
:10082000392090913A208E5B9109CC01A0E0B0E094
:10083000BC01CD010E94A50BDC01CB019C01AD01E7
:10084000C701B6010E94330CDC01CB0120E030E887
:1008500048E853E4BC01CD010E94900ADC01CB01C1
:1008600089839A83AB83BC8347E150E260E070E008
:1008700083E090E00E940308AE014B5F5F4F8981E7
:100880009A81AB81BC8121E030E0BC01CD010E94A6
:100890005109CE010596AC016CE070E083E090E078
:1008A0000E9403080E94200880E092E020E032E0ED
:1008B000F90120A12068FC0120A380E092E020E063
:1008C00032E0F90120A52068FC0120A780E492E035
:1008D00020E432E0F90120A12068FC0120A30000FF
:1008E0002C96CDBFDEBFDF91CF91FF91EF91BF91ED
:1008F000AF919F918F917F916F915F914F913F91B8
:100900002F91FF90EF90DF90CF900F9000923B00DF
:100910000F9000923F000F901F9018951F920F921A
:1009200000903F000F92112400903B000F928F9394
:100930009F93EF93FF93CF93DF93CDB7DEB780E024
:1009400092E0FC0184A195A1809333209093342000
:100950000000DF91CF91FF91EF919F918F910F90C8
:1009600000923B000F9000923F000F901F9018954F
:100970001F920F9200903F000F92112400903B00B5
:100980000F928F939F93EF93FF93CF93DF93CDB706
:10099000DEB780E092E0FC0184A595A58093372026
:1009A000909338200000DF91CF91FF91EF919F91BC
:1009B0008F910F9000923B000F9000923F000F909C
:1009C0001F9018951F920F9200903F000F921124D4
:1009D00000903B000F928F939F93EF93FF93CF93E1
:1009E000DF93CDB7DEB780E492E0FC0184A195A14E
:1009F0008093392090933A200000DF91CF91FF91AE
:100A0000EF919F918F910F9000923B000F90009279
:100A10003F000F901F901895CF93DF93CDB7DEB7AF
:100A20002A97CDBFDEBF6F83788789879A8781E059
:100A300090E0A0E0B0E08B839C83AD83BE832B81EC
:100A40003C814D815E818F819885A985BA85BC01E5
:100A5000CD010E94A00CDC01CB018B839C83AD8374
:100A6000BE838B819C81AD81BE810297A105B105BA
:100A7000C8F019821A8206C0000089819A81019605
:100A800089839A8389819A819C01990F440B550B24
:100A90008B819C81AD81BE81281739074A075B078E
:100AA00058F301C0000000002A96CDBFDEBFDF91E1
:100AB000CF910895CF93DF931F92CDB7DEB789838F
:100AC00089818F70898389818295807F898380E085
:100AD00096E020E036E0F901348129812F6023235C
:100AE000FC01248380E096E020E036E0F9013481C7
:100AF0002981232BFC01248300000F90DF91CF91EB
:100B00000895CF93DF931F92CDB7DEB78983898194
:100B1000882331F080E696E021E0FC01258305C0C2
:100B200080E696E021E0FC01268300000F90DF9133
:100B3000CF910895CF93DF931F92CDB7DEB789830E
:100B40008981882331F080E696E022E0FC0125834C
:100B500005C080E696E022E0FC01268300000F90AD
:100B6000DF91CF910895CF93DF931F92CDB7DEB77A
:100B700089838981882331F080E696E024E0FC01B6
:100B8000258305C080E696E024E0FC012683000072
:100B90000F90DF91CF910895CF93DF93CDB7DEB75C
:100BA00081E00E94B30561E070E080E090E00E9487
:100BB0000C0580E00E94B3050000DF91CF910895FD
:100BC000CF93DF931F92CDB7DEB78983898182955A
:100BD0008F700E945A0580E00E94810580E00E948B
:100BE0009A050E94CC0589818F700E945A050E9447
:100BF000CC0500000F90DF91CF910895CF93DF9344
:100C00001F92CDB7DEB78983898182958F700E944C
:100C10005A0581E00E94810580E00E949A050E94A9
:100C2000CC0589818F700E945A050E94CC05000076
:100C30000F90DF91CF9108950F931F93CF93DF9380
:100C40001F92CDB7DEB7898380E09BE025E0FC01F1
:100C5000208380E09BE0FC01118280E09BE022E0A9
:100C6000FC01268300E01BE08981282F30E040E072
:100C700050E080E291EAA7E0B0E0BC01CD010E9423
:100C8000B00CDA01C901F80186A397A300000F9008
:100C9000DF91CF911F910F910895CF93DF93CDB73F
:100CA000DEB780E096E020E1FC01218380E096E061
:100CB00020E2FC01218380E096E020E4FC01218316
:100CC00080E096E020E8FC01218380E696E021E0C8
:100CD000FC01218380E696E022E0FC01218380E68E
:100CE00096E024E0FC01218380E096E020E036E0FD
:100CF000F90124812F70FC01248380E696E020E630
:100D000036E0F9012481287FFC01248360E47CE93A
:100D100080E090E00E940C0583E00E945A0568E89C
:100D200073E180E090E00E940C050E94CC0560EA2F
:100D300070E080E090E00E940C050E94CC0560EA23
:100D400070E080E090E00E940C050E94CC0560EA13
:100D500070E080E090E00E940C0582E00E945A055D
:100D60000E94CC0588E20E94E00580E10E94E00537
:100D70008CE00E94E00586E00E94E0050E94660784
:100D80008AE00E941C060000DF91CF910895CF9366
:100D9000DF9300D01F92CDB7DEB789839A836B8330
:100DA0007C8389819A818130910589F08230910517
:100DB0001CF4892B39F01AC08230910569F0039731
:100DC00081F014C08B8180580E94E0050FC08B8198
:100DD00080540E94E0050AC08B818C560E94E00579
:100DE00005C08B818C520E94E005000067E270E034
:100DF00080E090E00E940C0500002496CDBFDEBF8D
:100E0000DF91CF910895CF93DF931F92CDB7DEB7D7
:100E1000898389810E94FE056BE270E080E090E0AA
:100E20000E940C0500000F90DF91CF910895CF93A1
:100E3000DF9300D01F92CDB7DEB78B839C831982DE
:100E40001A8219C089819A812B813C81820F931F5C
:100E5000FC0180818823A1F089819A812B813C81CA
:100E6000820F931FFC0180810E94030789819A8170
:100E7000019689839A8389819A8144971CF301C0E2
:100E8000000000002496CDBFDEBFDF91CF91089512
:100E9000CF93DF9300D000D0CDB7DEB789839A839C
:100EA0006B837C834D835E832B813C8189819A8116
:100EB000B9010E94C7068D819E810E94170700001C
:100EC0002696CDBFDEBFDF91CF910895CF93DF93FC
:100ED00000D01F92CDB7DEB719821A8222C01B82C2
:100EE0001C8216C089819A8144E1489F9001499FE4
:100EF000300D11248B819C81820F931F855C9F4D47
:100F000020E2FC0120838B819C8101968B839C8352
:100F10008B819C81449734F389819A8101968983DE
:100F20009A8389819A810497D4F200002496CDBFD8
:100F3000DEBFDF91CF910895CF93DF931F92CDB79E
:100F4000DEB7898380912C20482F50E080912D209E
:100F5000882F90E064E1649F9001659F300D11241B
:100F6000820F931F855C9F4D2981FC012083809116
:100F70002D208F5F80932D2080912D20843138F09B
:100F800010922D2080912C208F5F80932C208091B7
:100F90002C20843010F010922C2000000F90DF9154
:100FA000CF910895CF93DF9300D01F92CDB7DEB7D6
:100FB0008B839C8319821A8219C089819A812B8123
:100FC0003C81820F931FFC0180818823A1F08981DD
:100FD0009A812B813C81820F931FFC0180810E94AA
:100FE0009C0789819A81019689839A8389819A8154
:100FF00044971CF301C0000000002496CDBFDEBF63
:10100000DF91CF910895CF93DF9300D000D0CDB77B
:10101000DEB789839A836B837C834D835E8389816A
:1010200080932C208B8180932D208D819E810E9426
:10103000D20700002696CDBFDEBFDF91CF91089585
:10104000CF93DF931F921F92CDB7DEB780912E20F2
:10105000882301F110922E2019821A8217C029814B
:101060003A8144E1429FC001439F900D11249C01AD
:10107000255C3F4D89819A81A90160E070E00E9462
:10108000480789819A81019689839A8389819A8107
:1010900004972CF300000F900F90DF91CF910895EB
:1010A0001F920F9200903F000F9211248F93CF93C5
:1010B000DF93CDB7DEB781E080932E200000DF9173
:1010C000CF918F910F9000923F000F901F90189535
:1010D000CF93DF93CDB7DEB72897CDBFDEBF8F8329
:1010E000988719821A8281E090E0A0E0B0E08B83BB
:1010F0009C83AD83BE8319821A821FC08B819C8121
:10110000AD81BE81880F991FAA1FBB1F9C01AD0135
:10111000220F331F441F551F220F331F441F551F1B
:10112000820F931FA41FB51F8B839C83AD83BE8347
:1011300089819A81019689839A8329813A818F8155
:10114000988528173907D4F28B819C81AD81BE81A7
:10115000BC01CD012896CDBFDEBFDF91CF910895B0
:10116000CF93DF93CDB7DEB72F97CDBFDEBF8C8790
:101170009D876E877F8719821A821B821C821D823F
:101180001E828C859D85892B09F475C039C04C85DC
:101190005D859A01ADECBCEC0E94CF0C96958795CD
:1011A0009695879596958795880F991F9C01220F94
:1011B000331F220F331F820F931F9A01281B390BF5
:1011C000C90140E3480F9E01295F3F4F89819A8101
:1011D000820F931FFC0140838C859D859C01ADECA3
:1011E000BCEC0E94CF0C9695879596958795969521
:1011F00087958C879D8789819A81019689839A83B7
:101200008C859D85892B19F689819A818D839E8392
:101210001B821C822BC089819A8118161906CCF476
:101220008B819C812E853F85820F931F29813A8176
:1012300021503109AE01495F5F4F240F351FF9017D
:101240002081FC01208389819A81019789839A8377
:1012500008C08B819C812E853F85820F931FFC01E6
:1012600010828B819C8101968B839C838B819C81D6
:1012700006978CF20EC08E859F8520E3FC012083AB
:101280008E859F850196FC01108281E090E08D8320
:101290009E838D819E812F96CDBFDEBFDF91CF9142
:1012A0000895CF93DF93CDB7DEB7A897CDBFDEBF4C
:1012B00069A37AA38BA39CA34DA35EA32FA338A7F6
:1012C00019821A821B821C821D821E821F8218862E
:1012D00019861A861F86188A8FA198A50E94680809
:1012E000DC01CB01BC01CD010E94A50BDC01CB01CF
:1012F00029A13AA14BA15CA1BC01CD010E94330CF4
:10130000DC01CB01BC01CD010E946F0BDC01CB01E4
:101310008B879C87AD87BE878B859C85AD85BE8579
:10132000BB239CF481E090E089879A878B859C851C
:10133000AD85BE85B095A095909581959F4FAF4F97
:10134000BF4F8B879C87AD87BE878B859C85AD857E
:10135000BE85181619061A061B060CF0CBC030C045
:101360008B859C85AD85BE852AE030E040E050E06D
:10137000BC01CD010E94B00CDC01CB0140E3480F61
:101380009E012F5E3F4F89819A81820F931FFC013E
:1013900040838B859C85AD85BE852AE030E040E0AA
:1013A00050E0BC01CD010E94B00CDA01C9018B876D
:1013B0009C87AD87BE8789819A81019689839A83AC
:1013C0008B859C85AD85BE85181619061A061B06E9
:1013D0003CF289819A8101968D839E838D819E81C5
:1013E00089839A831B821C8247C02D813E818FA1F5
:1013F00098A5A901481B590BCA019C01215031092C
:101400008B819C812817390759F49E01275E3F4F35
:101410008B819C81820F931F2EE2FC01208327C0C9
:1014200089819A8118161906CCF489819A810297CC
:101430009E012F5E3F4F820F931FFC0140819E0152
:10144000275E3F4F8B819C81820F931FFC0140835D
:1014500089819A81019789839A8309C09E01275EB9
:101460003F4F8B819C81820F931FFC0110828B81E7
:101470009C8101968B839C838B819C8108970CF4C3
:10148000B4CF89859A85019771F48DA19EA12DE233
:10149000FC0120838D819E8101968D839E8381E056
:1014A00090E08F83988719821A828F8198858B8329
:1014B0009C831BC08B819C812DA13EA1820F931F19
:1014C000AE01475E5F4F29813A81240F351FF90134
:1014D0002081FC01208389819A81019689839A83E6
:1014E0008B819C8101968B839C838B819C81089747
:1014F0000CF30EC08DA19EA120E3FC0120838DA1E1
:101500009EA10196FC01108281E090E08D839E8374
:101510008D819E81A896CDBFDEBFDF91CF910895CA
:101520005058BB27AA270E94A80A0C94F90B0E94C6
:10153000EB0B38F00E94F20B20F039F49F3F19F4C6
:1015400026F40C94E80B0EF4E095E7FB0C94E20B08
:10155000E92F0E940A0C58F3BA1762077307840731
:10156000950720F079F4A6F50C942C0C0EF4E09578
:101570000B2EBA2FA02D0B01B90190010C01CA014D
:10158000A0011124FF27591B99F0593F50F4503EF8
:1015900068F11A16F040A22F232F342F4427585FEA
:1015A000F3CF469537952795A795F0405395C9F702
:1015B0007EF41F16BA0B620B730B840BBAF09150BA
:1015C000A1F0FF0FBB1F661F771F881FC2F70EC059
:1015D000BA0F621F731F841F48F48795779567952C
:1015E000B795F7959E3F08F0B0CF9395880F08F018
:1015F0009927EE0F9795879508950E94110B0C94EB
:10160000F90B0E94F20B58F00E94EB0B40F029F40A
:101610005F3F29F00C94E20B51110C942D0C0C94AB
:10162000E80B0E940A0C68F39923B1F3552391F358
:10163000951B550BBB27AA2762177307840738F041
:101640009F5F5F4F220F331F441FAA1FA9F335D09E
:101650000E2E3AF0E0E832D091505040E695001C52
:10166000CAF72BD0FE2F29D0660F771F881FBB1F0C
:10167000261737074807AB07B0E809F0BB0B802DEA
:10168000BF01FF2793585F4F3AF09E3F510578F016
:101690000C94E20B0C942D0C5F3FE4F3983ED4F3D2
:1016A000869577956795B795F7959F5FC9F7880FEA
:1016B000911D9695879597F90895E1E0660F771F3C
:1016C000881FBB1F621773078407BA0720F0621BCD
:1016D000730B840BBA0BEE1F88F7E09508950E94F8
:1016E000760B6894B1110C942D0C08950E94120C85
:1016F00088F09F5798F0B92F9927B751B0F0E1F0D3
:10170000660F771F881F991F1AF0BA95C9F714C082
:10171000B13091F00E942C0CB1E008950C942C0C87
:10172000672F782F8827B85F39F0B93FCCF38695BB
:1017300077956795B395D9F73EF490958095709518
:1017400061957F4F8F4F9F4F0895E89409C097FB95
:101750003EF490958095709561957F4F8F4F9F4F88
:101760009923A9F0F92F96E9BB279395F6958795CC
:1017700077956795B795F111F8CFFAF4BB0F11F48F
:1017800060FF1BC06F5F7F4F8F4F9F4F16C0882336
:1017900011F096E911C0772321F09EE8872F762F6C
:1017A00005C0662371F096E8862F70E060E02AF0AD
:1017B0009A95660F771F881FDAF7880F9695879599
:1017C00097F9089597F99F6780E870E060E00895C1
:1017D0009FEF80EC089500240A9416161706180649
:1017E0000906089500240A94121613061406050625
:1017F0000895092E0394000C11F4882352F0BB0FB6
:1018000040F4BF2B11F460FF04C06F5F7F4F8F4F18
:101810009F4F089557FD9058440F551F59F05F3F53
:1018200071F04795880F97FB991F61F09F3F79F002
:1018300087950895121613061406551FF2CF469584
:10184000F1DF08C0161617061806991FF1CF869506
:101850007105610508940895E894BB2766277727EA
:10186000CB0197F908950E94460C0C94F90B0E9445
:10187000EB0B38F00E94F20B20F0952311F00C9442
:10188000E20B0C94E80B11240C942D0C0E940A0C12
:1018900070F3959FC1F3950F50E0551F629FF001C3
:1018A000729FBB27F00DB11D639FAA27F00DB11DDC
:1018B000AA1F649F6627B00DA11D661F829F222765
:1018C000B00DA11D621F739FB00DA11D621F839FEC
:1018D000A00D611D221F749F3327A00D611D231FC2
:1018E000849F600D211D822F762F6A2F11249F5710
:1018F00050409AF0F1F088234AF0EE0FFF1FBB1F13
:10190000661F771F881F91505040A9F79E3F5105D1
:1019100080F00C94E20B0C942D0C5F3FE4F3983EA6
:10192000D4F3869577956795B795F795E7959F5F7B
:10193000C1F7FE2B880F911D9695879597F908950D
:10194000DB018F939F930E94DE0CBF91AF91A29F0A
:10195000800D911DA39F900DB29F900D11240895AD
:10196000052E97FB1EF400940E94C70C57FD07D06C
:101970000E94E90C07FC03D04EF40C94C70C509560
:101980004095309521953F4F4F4F5F4F089590956B
:101990008095709561957F4F8F4F9F4F0895A29FBF
:1019A000B001B39FC001A39F700D811D1124911D33
:1019B000B29F700D811D1124911D08950E94CF0CBE
:1019C000A59F900DB49F900DA49F800D911D112493
:1019D0000895A1E21A2EAA1BBB1BFD010DC0AA1F70
:1019E000BB1FEE1FFF1FA217B307E407F50720F088
:1019F000A21BB30BE40BF50B661F771F881F991F03
:101A00001A9469F760957095809590959B01AC014B
:0A1A1000BD01CF010895F894FFCF47
:101A1A00504F5449313A00504F5449323A005445D4
:101A2A004D505261773A0054656D706572617475F4
:041A3A0072653A0097
:00000001FF
